{
  "contractName": "Fundraiser",
  "abi": [
    {
      "constant": true,
      "inputs": [
        {
          "name": "",
          "type": "uint256"
        }
      ],
      "name": "pendingRequests",
      "outputs": [
        {
          "name": "",
          "type": "uint256"
        }
      ],
      "payable": false,
      "stateMutability": "view",
      "type": "function"
    },
    {
      "constant": true,
      "inputs": [],
      "name": "owner",
      "outputs": [
        {
          "name": "",
          "type": "address"
        }
      ],
      "payable": false,
      "stateMutability": "view",
      "type": "function"
    },
    {
      "constant": true,
      "inputs": [],
      "name": "MIN_CONTRIBUTIONS",
      "outputs": [
        {
          "name": "",
          "type": "uint256"
        }
      ],
      "payable": false,
      "stateMutability": "view",
      "type": "function"
    },
    {
      "constant": true,
      "inputs": [],
      "name": "donorsCount",
      "outputs": [
        {
          "name": "",
          "type": "uint256"
        }
      ],
      "payable": false,
      "stateMutability": "view",
      "type": "function"
    },
    {
      "constant": true,
      "inputs": [
        {
          "name": "",
          "type": "address"
        }
      ],
      "name": "donors",
      "outputs": [
        {
          "name": "",
          "type": "bool"
        }
      ],
      "payable": false,
      "stateMutability": "view",
      "type": "function"
    },
    {
      "inputs": [],
      "payable": false,
      "stateMutability": "nonpayable",
      "type": "constructor"
    },
    {
      "anonymous": false,
      "inputs": [
        {
          "indexed": false,
          "name": "from",
          "type": "address"
        },
        {
          "indexed": false,
          "name": "recipient",
          "type": "address"
        },
        {
          "indexed": false,
          "name": "amount",
          "type": "uint256"
        },
        {
          "indexed": false,
          "name": "requestId",
          "type": "uint256"
        }
      ],
      "name": "RequestCreated",
      "type": "event"
    },
    {
      "anonymous": false,
      "inputs": [
        {
          "indexed": false,
          "name": "from",
          "type": "address"
        },
        {
          "indexed": false,
          "name": "recipient",
          "type": "address"
        },
        {
          "indexed": false,
          "name": "amount",
          "type": "uint256"
        },
        {
          "indexed": false,
          "name": "requestId",
          "type": "uint256"
        }
      ],
      "name": "RequestCompleted",
      "type": "event"
    },
    {
      "constant": false,
      "inputs": [],
      "name": "donate",
      "outputs": [],
      "payable": true,
      "stateMutability": "payable",
      "type": "function"
    },
    {
      "constant": false,
      "inputs": [
        {
          "name": "_recipient",
          "type": "address"
        },
        {
          "name": "_amount",
          "type": "uint256"
        },
        {
          "name": "_cause",
          "type": "string"
        }
      ],
      "name": "createRequest",
      "outputs": [],
      "payable": false,
      "stateMutability": "nonpayable",
      "type": "function"
    },
    {
      "constant": false,
      "inputs": [
        {
          "name": "_requestId",
          "type": "uint256"
        }
      ],
      "name": "approveRequest",
      "outputs": [],
      "payable": false,
      "stateMutability": "nonpayable",
      "type": "function"
    },
    {
      "constant": false,
      "inputs": [
        {
          "name": "_requestId",
          "type": "uint256"
        }
      ],
      "name": "finalizeRequest",
      "outputs": [],
      "payable": true,
      "stateMutability": "payable",
      "type": "function"
    },
    {
      "constant": false,
      "inputs": [
        {
          "name": "_requestId",
          "type": "uint256"
        }
      ],
      "name": "deleteRequest",
      "outputs": [],
      "payable": false,
      "stateMutability": "nonpayable",
      "type": "function"
    },
    {
      "constant": true,
      "inputs": [],
      "name": "getReport",
      "outputs": [
        {
          "name": "",
          "type": "uint256"
        },
        {
          "name": "",
          "type": "uint256"
        },
        {
          "name": "",
          "type": "uint256"
        },
        {
          "name": "",
          "type": "address"
        }
      ],
      "payable": false,
      "stateMutability": "view",
      "type": "function"
    }
  ],
  "bytecode": "0x6080604052600a60045534801561001557600080fd5b50336000806101000a81548173ffffffffffffffffffffffffffffffffffffffff021916908373ffffffffffffffffffffffffffffffffffffffff160217905550610e91806100656000396000f3fe6080604052600436106100af576000357c0100000000000000000000000000000000000000000000000000000000900463ffffffff16806303441006146100b45780633c652a9a146100e25780638da5cb5b146101315780639f1c9267146101885780639ff534dc146101b3578063ba9a7a9e146101de578063ca0cdea8146102d0578063d7d1bbdb14610339578063e4085d6714610374578063e9a21bcd146103e0578063ed88c68e1461041b575b600080fd5b6100e0600480360360208110156100ca57600080fd5b8101908080359060200190929190505050610425565b005b3480156100ee57600080fd5b5061011b6004803603602081101561010557600080fd5b810190808035906020019092919050505061066f565b6040518082815260200191505060405180910390f35b34801561013d57600080fd5b50610146610692565b604051808273ffffffffffffffffffffffffffffffffffffffff1673ffffffffffffffffffffffffffffffffffffffff16815260200191505060405180910390f35b34801561019457600080fd5b5061019d6106b7565b6040518082815260200191505060405180910390f35b3480156101bf57600080fd5b506101c86106bd565b6040518082815260200191505060405180910390f35b3480156101ea57600080fd5b506102ce6004803603606081101561020157600080fd5b81019080803573ffffffffffffffffffffffffffffffffffffffff169060200190929190803590602001909291908035906020019064010000000081111561024857600080fd5b82018360208201111561025a57600080fd5b8035906020019184600183028401116401000000008311171561027c57600080fd5b91908080601f016020809104026020016040519081016040528093929190818152602001838380828437600081840152601f19601f8201169050808301925050505050505091929192905050506106c3565b005b3480156102dc57600080fd5b5061031f600480360360208110156102f357600080fd5b81019080803573ffffffffffffffffffffffffffffffffffffffff169060200190929190505050610931565b604051808215151515815260200191505060405180910390f35b34801561034557600080fd5b506103726004803603602081101561035c57600080fd5b8101908080359060200190929190505050610951565b005b34801561038057600080fd5b50610389610a8c565b604051808581526020018481526020018381526020018273ffffffffffffffffffffffffffffffffffffffff1673ffffffffffffffffffffffffffffffffffffffff16815260200194505050505060405180910390f35b3480156103ec57600080fd5b506104196004803603602081101561040357600080fd5b8101908080359060200190929190505050610ae3565b005b610423610c89565b005b6000809054906101000a900473ffffffffffffffffffffffffffffffffffffffff1673ffffffffffffffffffffffffffffffffffffffff163373ffffffffffffffffffffffffffffffffffffffff1614806104d0575060011515600560003373ffffffffffffffffffffffffffffffffffffffff1673ffffffffffffffffffffffffffffffffffffffff16815260200190815260200160002060009054906101000a900460ff161515145b15156104db57600080fd5b60006001600083815260200190815260200160002090508060030160009054906101000a900460ff1615151561051057600080fd5b8060000160009054906101000a900473ffffffffffffffffffffffffffffffffffffffff1673ffffffffffffffffffffffffffffffffffffffff166108fc82600101549081150290604051600060405180830381858888f1935050505015801561057e573d6000803e3d6000fd5b5060018160030160006101000a81548160ff0219169083151502179055507fbc0ce1c07114e4e735dfdb87cf7d9145e5b9a389f174da0e29edcdc63373ca9a338260000160009054906101000a900473ffffffffffffffffffffffffffffffffffffffff16836001015485604051808573ffffffffffffffffffffffffffffffffffffffff1673ffffffffffffffffffffffffffffffffffffffff1681526020018473ffffffffffffffffffffffffffffffffffffffff1673ffffffffffffffffffffffffffffffffffffffff16815260200183815260200182815260200194505050505060405180910390a15050565b60028181548110151561067e57fe5b906000526020600020016000915090505481565b6000809054906101000a900473ffffffffffffffffffffffffffffffffffffffff1681565b60045481565b60065481565b6000809054906101000a900473ffffffffffffffffffffffffffffffffffffffff1673ffffffffffffffffffffffffffffffffffffffff163373ffffffffffffffffffffffffffffffffffffffff1614151561071e57600080fd5b600454821115151561072f57600080fd5b60006001600354019050610741610d04565b84816000019073ffffffffffffffffffffffffffffffffffffffff16908173ffffffffffffffffffffffffffffffffffffffff16815250508381602001818152505082816040018190525060008160600190151590811515815250506000816080018181525050806001600084815260200190815260200160002060008201518160000160006101000a81548173ffffffffffffffffffffffffffffffffffffffff021916908373ffffffffffffffffffffffffffffffffffffffff160217905550602082015181600101556040820151816002019080519060200190610829929190610d4c565b5060608201518160030160006101000a81548160ff0219169083151502179055506080820151816004015590505060028290806001815401808255809150509060018203906000526020600020016000909192909190915055507fc5ab5e7d8bcf88717a0dbfaf1f7333a6ce10e38cf869ddf06f1f63e35f8e5ff733868685604051808573ffffffffffffffffffffffffffffffffffffffff1673ffffffffffffffffffffffffffffffffffffffff1681526020018473ffffffffffffffffffffffffffffffffffffffff1673ffffffffffffffffffffffffffffffffffffffff16815260200183815260200182815260200194505050505060405180910390a15050505050565b60056020528060005260406000206000915054906101000a900460ff1681565b6000600160008381526020019081526020016000209050600560003373ffffffffffffffffffffffffffffffffffffffff1673ffffffffffffffffffffffffffffffffffffffff16815260200190815260200160002060009054906101000a900460ff1615156109c057600080fd5b8060050160003373ffffffffffffffffffffffffffffffffffffffff1673ffffffffffffffffffffffffffffffffffffffff16815260200190815260200160002060009054906101000a900460ff16151515610a1b57600080fd5b60018160050160003373ffffffffffffffffffffffffffffffffffffffff1673ffffffffffffffffffffffffffffffffffffffff16815260200190815260200160002060006101000a81548160ff021916908315150217905550600181600401600082825401925050819055505050565b6000806000803073ffffffffffffffffffffffffffffffffffffffff16316002805490506006546000809054906101000a900473ffffffffffffffffffffffffffffffffffffffff16935093509350935090919293565b6000809054906101000a900473ffffffffffffffffffffffffffffffffffffffff1673ffffffffffffffffffffffffffffffffffffffff163373ffffffffffffffffffffffffffffffffffffffff16141515610b3e57600080fd5b600080905060008090505b600280549050811015610bd5578160ff1660011415610ba157600281815481101515610b7157fe5b9060005260206000200154600260018303815481101515610b8e57fe5b9060005260206000200181905550610bc8565b600281815481101515610bb057fe5b9060005260206000200154831415610bc757600191505b5b8080600101915050610b49565b506002600160028054905003815481101515610bed57fe5b90600052602060002001600090556001600281818054905003915081610c139190610dcc565b5060016000838152602001908152602001600020600080820160006101000a81549073ffffffffffffffffffffffffffffffffffffffff02191690556001820160009055600282016000610c679190610df8565b6003820160006101000a81549060ff0219169055600482016000905550505050565b60045434111515610c9957600080fd5b6001600560003373ffffffffffffffffffffffffffffffffffffffff1673ffffffffffffffffffffffffffffffffffffffff16815260200190815260200160002060006101000a81548160ff0219169083151502179055506001600660008282540192505081905550565b60a060405190810160405280600073ffffffffffffffffffffffffffffffffffffffff1681526020016000815260200160608152602001600015158152602001600081525090565b828054600181600116156101000203166002900490600052602060002090601f016020900481019282601f10610d8d57805160ff1916838001178555610dbb565b82800160010185558215610dbb579182015b82811115610dba578251825591602001919060010190610d9f565b5b509050610dc89190610e40565b5090565b815481835581811115610df357818360005260206000209182019101610df29190610e40565b5b505050565b50805460018160011615610100020316600290046000825580601f10610e1e5750610e3d565b601f016020900490600052602060002090810190610e3c9190610e40565b5b50565b610e6291905b80821115610e5e576000816000905550600101610e46565b5090565b9056fea165627a7a72305820f02be2559d2c5db85fb8013c3f6f2edb16c7ecf52b67aece6431fbc3b44cb37a0029",
  "source": "pragma solidity ^0.5.0;\r\n\r\ncontract Fundraiser {\r\n    address public owner;\r\n    \r\n    struct Request {\r\n        address payable recipient;\r\n        uint amount;\r\n        string cause;\r\n        bool complete;\r\n        uint approvalCount;\r\n        mapping (address => bool) approvals;\r\n    }\r\n    \r\n    mapping (uint => Request) private requests;\r\n    uint[] public pendingRequests;\r\n    uint private requestIdx;\r\n    \r\n    uint public MIN_CONTRIBUTIONS = 10;\r\n    mapping(address => bool) public donors;\r\n    uint public donorsCount;\r\n    \r\n    constructor() public {\r\n        owner = msg.sender;\r\n    }\r\n    \r\n    modifier onlyOwner() {\r\n        require(msg.sender == owner);\r\n        _;\r\n    }\r\n    modifier onlyDonor(){\r\n        require(msg.sender == owner || donors[msg.sender] == true);\r\n        _;\r\n    }\r\n    \r\n    event RequestCreated(address from, address recipient, uint amount, uint requestId);\r\n    event RequestCompleted(address from, address recipient, uint amount, uint requestId);\r\n    \r\n    function donate() payable public {\r\n        require(msg.value > MIN_CONTRIBUTIONS);\r\n        donors[msg.sender] = true;\r\n        donorsCount += 1;\r\n    }\r\n    function createRequest(address payable _recipient, uint _amount, string memory _cause) public onlyOwner {\r\n        require(_amount <= MIN_CONTRIBUTIONS);\r\n        uint requestId = requestIdx + 1;\r\n        Request memory newRequest;\r\n        newRequest.recipient = _recipient;\r\n        newRequest.amount = _amount;\r\n        newRequest.cause = _cause;\r\n        newRequest.complete = false;\r\n        newRequest.approvalCount = 0;\r\n        \r\n        requests[requestId] = newRequest;\r\n        pendingRequests.push(requestId);\r\n        emit RequestCreated(msg.sender, _recipient, _amount, requestId);\r\n    }\r\n    function approveRequest(uint _requestId) public {\r\n        Request storage request = requests[_requestId];\r\n        require(donors[msg.sender]);\r\n        require(!request.approvals[msg.sender]);\r\n        request.approvals[msg.sender] = true;\r\n        request.approvalCount += 1;\r\n    }\r\n    function finalizeRequest(uint _requestId) public payable onlyDonor {\r\n        Request storage request= requests[_requestId] ;\r\n        require(!request.complete);\r\n        request.recipient.transfer(request.amount);\r\n        request.complete = true;\r\n        emit RequestCompleted(msg.sender, request.recipient,request.amount, _requestId);\r\n    }\r\n    function deleteRequest (uint _requestId) onlyOwner public {\r\n        uint8 replace = 0;\r\n        for (uint i=0 ; i< pendingRequests.length; i++) {\r\n            if (1 == replace) {\r\n                pendingRequests[i-1] = pendingRequests[i];\r\n            }\r\n            else if(_requestId == pendingRequests[i]) {\r\n                replace =1;\r\n            }\r\n        }\r\n        delete pendingRequests[pendingRequests.length -1 ];\r\n        pendingRequests.length -=1 ;\r\n        delete requests[_requestId];\r\n    }\r\n    \r\n    //for viewing purpose\r\n    function getReport() view public returns ( uint, uint, uint, address) {\r\n        return ( address(this).balance, pendingRequests.length, donorsCount, owner);\r\n    }\r\n    \r\n}",
  "sourcePath": "D:/NITASHA GUPTA/Documents/Github/fundraiser-ethereum/contracts/Fundraiser.sol",
  "compiler": {
    "name": "solc",
    "version": "0.5.0+commit.1d4f565a.Emscripten.clang"
  },
  "schemaVersion": "3.0.1",
  "updatedAt": "2020-07-21T07:17:26.188Z",
  "devdoc": {
    "methods": {}
  },
  "userdoc": {
    "methods": {}
  }
}